:100000000C942A000C9447000C9447000C94470071
:100010000C9447000C9447000C9447000C94470044
:100020000C9447000C9447000C9447000C94470034
:100030000C9447000C9447000C9447000C94470024
:100040000C9447000C9447000C9447000C94470014
:100050000C94470011241FBECFE5D8E0DEBFCDBF12
:1000600011E0A0E6B0E0E2E4F5E002C005900D92F8
:10007000A838B107D9F721E0A8E8B1E001C01D9286
:10008000A83AB207E1F70E9468020C949F020C9410
:10009000000088E18AB984E480BD83E389B90895CA
:1000A0008BBBC29A85E88A95F1F7000088B3887FF8
:1000B00088BB81EE94E00197F1F700C0000008953D
:1000C00081EE94E00197F1F700C0000088E30E9400
:1000D000500095E89A95F1F7000081E00E945000E9
:1000E00085E88A95F1F700008EE00E94500095E8BF
:1000F0009A95F1F7000008958BBB88B3856088BBA3
:1001000085E88A95F1F7000088B3897F88BB81EE86
:1001100094E00197F1F700C0000008950F931F933A
:10012000CF93FC018081882359F08F01C0E00E94A9
:100130007C00CF5FF801EC0FF11D80818111F7CFBA
:10014000CF911F910F9108950F931F93CF93DF933A
:10015000C7E9D1E00CE911E05F9BFECF8CB1809341
:10016000A70189930E947C0083ED90E30197F1F74A
:1001700000C00000C017D10779F7DF91CF911F9120
:100180000F9108950F931F93CF93DF93C8E8D1E0A9
:100190000CE811E05F9BFECF8CB18093A70189939F
:1001A0008AE20E947C0083ED90E30197F1F700C0A2
:1001B0000000C017D10771F7DF91CF911F910F9108
:1001C00008958CB95D9BFECF0895CF93DF93EC012A
:1001D0008881882331F021960E94E1008991811164
:1001E000FBCFDF91CF9108955F9BFECF8CB18093C1
:1001F000A60108958BE690E00E94E5008DE00E9444
:10020000E10088E790E00E94E5008DE00E94E100B7
:100210008FE890E00E94E5008DE00E94E1008EEA08
:1002200090E00E94E5008DE00E94E10085EC90E006
:100230000E94E5008DE00E94E1008DED90E00E94BB
:10024000E5008DE00E94E10085EF90E00E94E5006E
:100250008DE00E94E10084E191E00E94E5008DE0E4
:100260000E94E1000E94F4008093A601833389F18B
:1002700028F4813359F08233C1F00895853309F4AD
:1002800048C0C0F1863309F455C008958DE00E943E
:10029000E100A89A8DE00E94E1000E94FA0087EA3E
:1002A00091E60197F1F700C000008DE00E94E100A7
:1002B00085B38D6085BB8DE00E94E1000E94FA004D
:1002C0009FE32DE083E0915020408040E1F700C0A3
:1002D00000008DE00E94E10085B38C6085BB8DE05D
:1002E0000E94E1000E94FA0087EA91E60197F1F787
:1002F00000C000008DE00E94E100A8988DE00E94FF
:10030000E1000E94FA0087EA91E60197F1F700C048
:1003100000008DE00E94E10085B3857085BB8DE013
:100320000E94E1000E94FA0087EA91E60197F1F746
:1003300000C000008DE00E94E10085B3847085BBA1
:100340008DE00E94E10087EA91E60197F1F700C095
:10035000000082E291E00E948E009FE32DE083E0A6
:10036000915020408040E1F700C000000E946802E8
:10037000089560E670E087E991E00E949602892B7B
:1003800009F08BC081E00E94500082E00E94500082
:100390008FE291E00E948E008DE00E94E1008FE2EA
:1003A00091E00E94E5008FE493EC0197F1F700C023
:1003B000000081E00E94500082E00E9450008DE029
:1003C0000E94E1008AE391E00E94E5008AE391E067
:1003D0000E948E008DE00E94E10087E893E1019782
:1003E000F1F700C0000080EC0E9450000E94C200A3
:1003F00066E670E088E891E00E949602892B91F50C
:1004000081E00E94500082E00E9450008FE291E063
:100410000E948E008FE493EC0197F1F700C000007A
:1004200081E00E94500089E491E00E948E0087EAFA
:1004300091E60197F1F700C0000083ED90E301978A
:10044000F1F700C0000081E00E9450008DE00E94A2
:10045000E1000E94FA0087EA91E60197F1F700C0F7
:100460000000089581E00E94500082E00E94500048
:1004700086E591E00E948E0080EC0E94500082E6AA
:1004800091E00E948E009FE926E881E09150204093
:100490008040E1F700C00000089581E00E94500014
:1004A00082E00E9450008CE691E00E948E0080EC79
:1004B0000E94500082E691E00E948E009FE926E8AB
:1004C00081E0915020408040E1F700C00000089595
:1004D0000E9449008FEF8ABB81BB87BB84B38F60CA
:1004E00084BB949A0E94600081E00E94500082E0E8
:1004F0000E94500080E80E94500089E791E00E942D
:100500008E0089E791E00E94E5008DE00E94E10005
:1005100087E893E10197F1F700C0000080EC0E94AA
:1005200050000E94A4000E94B901DECFFB01DC0153
:100530008D91019080190110D9F3990B0895F894C9
:02054000FFCFEB
:100542007061737377003132333400456E746572B3
:100552002043686F69636500505245535320312030
:10056200544F205455524E204C4544204F4E00507B
:1005720052455353203220544F205455524E204C52
:10058200454420414E442046414E204F4E00505299
:10059200455353203320544F205455524E20464148
:1005A2004E204F4E005052455353203420544F207A
:1005B2005455524E204C4544204F46460050524519
:1005C2005353203520544F205455524E2046414E0D
:1005D200204F4646005052455353203620544F2058
:1005E2005455524E204F464620455645525954487E
:1005F200494E4700414E44204C4F434B20444F4FFD
:100602005200434C4F53494E4720444F4F520049EA
:1006120044204D41544348454400454E54455220E0
:1006220050415353574F5244004F50454E494E4745
:1006320020444F4F520057524F4E4720454E54527E
:10064200590054525920414741494E00494E5641A2
:100652004C4944205553455200454E54455220556D
:080662005345522049440000F9
:00000001FF
